{
  "contractName": "Forward",
  "abi": [
    {
      "constant": true,
      "inputs": [],
      "name": "destinationAddress",
      "outputs": [
        {
          "name": "",
          "type": "address"
        }
      ],
      "payable": false,
      "stateMutability": "view",
      "type": "function",
      "signature": "0xca325469"
    },
    {
      "inputs": [],
      "payable": false,
      "stateMutability": "nonpayable",
      "type": "constructor",
      "signature": "constructor"
    },
    {
      "payable": true,
      "stateMutability": "payable",
      "type": "fallback"
    },
    {
      "anonymous": false,
      "inputs": [
        {
          "indexed": true,
          "name": "sender",
          "type": "address"
        },
        {
          "indexed": false,
          "name": "amount",
          "type": "uint256"
        }
      ],
      "name": "LogForwarded",
      "type": "event",
      "signature": "0x5bac0d4f99f71df67fa7cebba0369126a7cb2b183bcb02b8393dbf5185ba77b6"
    },
    {
      "anonymous": false,
      "inputs": [
        {
          "indexed": true,
          "name": "sender",
          "type": "address"
        },
        {
          "indexed": false,
          "name": "amount",
          "type": "uint256"
        }
      ],
      "name": "LogFlushed",
      "type": "event",
      "signature": "0xa98efcd54f1f2ae5457ba3c68d7cf8974003a2bfce00f526f5624264a87bc0ea"
    },
    {
      "constant": false,
      "inputs": [],
      "name": "flush",
      "outputs": [],
      "payable": false,
      "stateMutability": "nonpayable",
      "type": "function",
      "signature": "0x6b9f96ea"
    }
  ],
  "bytecode": "0x608060405234801561001057600080fd5b50336000806101000a81548173ffffffffffffffffffffffffffffffffffffffff021916908373ffffffffffffffffffffffffffffffffffffffff1602179055506102a9806100606000396000f3fe60806040526004361061004c576000357c0100000000000000000000000000000000000000000000000000000000900463ffffffff1680636b9f96ea14610104578063ca3254691461011b575b3373ffffffffffffffffffffffffffffffffffffffff167f5bac0d4f99f71df67fa7cebba0369126a7cb2b183bcb02b8393dbf5185ba77b6346040518082815260200191505060405180910390a26000809054906101000a900473ffffffffffffffffffffffffffffffffffffffff1673ffffffffffffffffffffffffffffffffffffffff166108fc349081150290604051600060405180830381858888f19350505050158015610101573d6000803e3d6000fd5b50005b34801561011057600080fd5b50610119610172565b005b34801561012757600080fd5b50610130610258565b604051808273ffffffffffffffffffffffffffffffffffffffff1673ffffffffffffffffffffffffffffffffffffffff16815260200191505060405180910390f35b3373ffffffffffffffffffffffffffffffffffffffff167fa98efcd54f1f2ae5457ba3c68d7cf8974003a2bfce00f526f5624264a87bc0ea3073ffffffffffffffffffffffffffffffffffffffff16316040518082815260200191505060405180910390a26000809054906101000a900473ffffffffffffffffffffffffffffffffffffffff1673ffffffffffffffffffffffffffffffffffffffff166108fc3073ffffffffffffffffffffffffffffffffffffffff16319081150290604051600060405180830381858888f19350505050158015610255573d6000803e3d6000fd5b50565b6000809054906101000a900473ffffffffffffffffffffffffffffffffffffffff168156fea165627a7a723058203a79b7c7b8613916b79a16d5866a3b25bbbcb4f6ecac8d8f30359e008ed97fb60029",
  "source": "pragma solidity >=0.4.21 <0.6.0;\n\ncontract Forward {\n\n  address payable public destinationAddress;\n  event LogForwarded(address indexed sender, uint amount);\n  event LogFlushed(address indexed sender, uint amount);\n\n  constructor() public {\n    destinationAddress = msg.sender;\n  }\n\n  function() external payable {\n    emit LogForwarded(msg.sender, msg.value);\n    destinationAddress.transfer(msg.value);\n  }\n\n  function flush() public {\n    emit LogFlushed(msg.sender, address(this).balance);\n    destinationAddress.transfer(address(this).balance);\n  }\n\n}\n",
  "sourcePath": "/Users/maektwain/contracts/shadyc/contracts/Forward.sol",
  "compiler": {
    "name": "solc",
    "version": "0.5.0+commit.1d4f565a.Emscripten.clang"
  },
  "schemaVersion": "3.0.6",
  "updatedAt": "2019-04-02T21:18:51.087Z",
  "devdoc": {
    "methods": {}
  },
  "userdoc": {
    "methods": {}
  }
}